:100000000C940D120C943E120C943E120C943E1261
:100010000C943E120C943E120C943E120C943E1220
:100020000C943E120C943E120C943E120C943E1210
:100030000C943E120C943E120C943E120C943E1200
:100040000C943E120C943E120C943E120C943E12F0
:100050000C943E120C943E120C943E120C94427975
:100060000C943E120C94847A0C945A7A0C943E129E
:100070000C943E120C943E120C943E120C943E12C0
:100080000C943E120C943E120C943E120C943E12B0
:100090000C943E120C943E120C943E120C943E12A0
:1000A0000C943E120C943E120C943E120C943E1290
:1000B0000C943E120C943E120C943E120C943E1280
:1000C0000C943E120C943E120C943E120C943E1270
:1000D0000C943E120C943E120C943E120C943E1260
:1000E0000C943E1208000000BE922449123EABAAB6
:1000F000AA2ABECDCCCC4C3E00000080BEABAAAA42
:10010000AA3E00000000BF000000803F0000000089
:1001100000084178D3BB4387D1133D190E3CC3BDC2
:100120004282AD2B3E68EC8276BED98FE1A93E4C6F
:1001300080EFFFBE01C4FF7F3F00000000000763A7
:100140004236B79BD8A71A39685618AEBAAB558C49
:100150001D3CB7CC5763BD6DEDFD753EF617723192
:10016000BF000000803F0C94AB420C940A160C9424
:100170000C690C9487280C940E160C9462510C9404
:100180007A430C94F4680C94651A0C94DD680C9412
:1001900035430C949A480C94F6150C9478670C949B
:1001A00026160C94175E0C94E5270C949A430C9435
:1001B000D0220C9438600C94D74D0C9483540C943A
:1001C00017140C9410690C941E160C944D370C9453
:1001D000A6780C94DA540C94EE150C94FE680C94EA
:1001E00097130C9426540C9422160C94F1460C94FC
:1001F000CE140C94EC150C9402160C94812A0C94D9
:1002000016160C94C9140C94E3410C94E36A0C94F4
:1002100006690C940C3B0C9439250C94CD140C9469
:100220009B170C94EA540C942A160C94DC7D0C94C5
:10023000BA620C94F6520C9414630C94F7420C942A
:100240007E5B0C940A710C94FC150C94B21E0C94F9
:10025000BA680C94803D0C94A0530C949C120C949E
:10026000B6140C9437550C94DC620C940A420C942E
:10027000521C0C9452540C94394B0C94AC270C9493
:10028000A1420C94CF140C940C2A0C9400160C94DC
:1002900005650C9428160C9492420C947C630C9483
:1002A000CE630C94FE150C94C1540C9452640C94BF
:1002B0009A120C941A5F0C9412160C94AE130C94B0
:1002C00003740C949E1A0C9470670C94E6680C945A
:1002D000FD5C0C94D1680C941B340C940C160C949B
:1002E000B9570C9421200C9485290C94E9150C9491
:1002F0007C7E0C9408160C942D140C94F8150C9418
:1003000072670C94C8140C94CA140C94F0150C94D5
:10031000F4540C9417270C9410160C9424160C9477
:1003200014790C94EA680C9402690C94F6390C94D4
:100330004E540C94665C0C94D9680C9414160C946E
:10034000C6430C9418160C94636C0C94ED430C94F7
:10035000A41C0C94F37F0C947E620C94BD3F0C940F
:1003600032640C9455430C9404160C94BF600C94A6
:10037000AB620C94CD630C94F8680C941C160C942E
:100380009B120C9422140C94F2150C9432270C94AA
:1003900092390C94B1540C94E0680C946E520C9405
:1003A00082350C949A160C9462640C94CE620C9470
:1003B00079530C94C9420C941E790C94AB220C9482
:1003C000771B0C947B600C94574C0C94A85A0C949B
:1003D0002D160C94BF680C944B3A0C949F5D0C94B2
:1003E000A33C0C9499470C9476670C94D1340C94EC
:1003F0001A160C94F4150C9478640C94D5680C942B
:100400003F3F0C9406160C9420160C9408170C947D
:10041000F0680C9474670C94FA150C9414740C9492
:10042000D3780C9487540C9477800C9415430C94D7
:10043000C35343757272656E74204368616E67655D
:100440006420746F2025640050726F6265205465CB
:10045000737420436F6D706C657465642C437572A2
:1004600072656E7420526573746F72656420746F68
:100470002025640050726F626520546573742053A8
:100480007461727465642C43757272656E743A207F
:1004900025640054657374436F6E74726F6C6C6581
:1004A00072205472616E736974696F6E2066726F28
:1004B0006D20537461746549642025642066726FF1
:1004C0006D2053746174654964202564004865613A
:1004D000746572206D6F64652073776974636865F5
:1004E0006420746F2068656174696E670048656197
:1004F000746572206D6F64652073776974636865D5
:100500006420746F206175746F2074756E6500547B
:1005100065737420436F6D706C6574656400546519
:100520007374436F6E74726F6C6C65722054726179
:100530006E736974696F6E2066726F6D205374619B
:10054000746549642025642066726F6D2053746160
:10055000746549642025640053442043617264201B
:10056000496E697469616C697A656400436F6E7481
:10057000726F6C6C657220726573657474696E67F6
:100580002C20706C6561736520776169742E2E2E46
:100590002E2E2E2E0053617665642073746174656F
:1005A0002064656C657465640044656C6574696E8F
:1005B0006720736176656420737461746500547597
:1005C0006E696E672063616E63656C656400547567
:1005D0006E696E6720726573756C747320736176D3
:1005E0006564002D2D2D2D2D2D204669726D7761AE
:1005F000726520496E697469616C697A6174696FAA
:100600006E20436F6D706C6574652D2D2D2D2D2D15
:100610002D004E6F2073617665642073746174657C
:1006200020666F756E642C20636F6E74696E7569D9
:100630006E6720746F206E6F726D616C206F7065D5
:10064000726174696F6E00536176656420737461C2
:10065000746520666F756E642C20737461746520F8
:100660006C6F616465642E20526573756D696E6789
:100670002066726F6D207361766564207374617497
:100680006500436865636B20666F722073617665F1
:10069000642073746174652C2046726565204D6515
:1006A0006D6F72793A202564002D2D2D2D2D2D2D65
:1006B00054696D657220496E697469616C697A610B
:1006C00074696F6E20436F6D706C6574652D2D2D90
:1006D0002D2D2D2D2D2D2D002D2D2D2D2D2D2D2D77
:1006E0002D2D2D2D2D496E6974616C697A696E67A7
:1006F0002054696D6572732D2D2D2D2D2D2D2D2DD1
:100700002D2D2D2D2D2D002D2D2D2D2D2D2D2D4330
:100710006F6D706F6E656E747320496E6974616C75
:10072000697A65642D2D2D2D2D2D2D2D2D2D2D2D01
:100730002D2D2D2D2D005265676973746572696EBC
:100740006720436F6D706F6E656E74732E2E2E2E44
:100750002E2E2E2E2E2E2E2E2E2E2E2E2E2E2E2EB9
:100760002E2E2E2E0050726F62657320696E697492
:1007700069616C697A65642E2E2E2E2E2E2E2E2EF9
:100780002E2E2E2E2E2E2E2E2E2E2E2E2E2E2E2E89
:100790002E2E2E004865617465727320696E69742F
:1007A00069616C697A65642E2E2E2E2E2E2E2E2EC9
:1007B0002E2E2E2E2E2E2E2E2E2E2E2E2E2E2E2E59
:1007C0002E2E002D2D2D2D2D2D2D2D436F6D706F67
:1007D0006E656E747320496E6974616C697A696EB6
:1007E00067205374617274696E672D2D2D2D2D2D28
:1007F0002D00436F6E66696775726174696F6E2054
:1008000046696C6573204C6F616465642E2E2E2ED4
:100810002E2E2E2E2E2E2E2E2E2E2E2E2E2E2E2EF8
:10082000004166746572204C6F6164696E67204692
:10083000726565204D656D6F72793A2025642E2EA4
:100840002E2E2E2E2E2E2E2E2E2E2E2E2E2E2E00F6
:100850004C6F6164696E6720636F6E66696775725D
:100860006174696F6E2066696C65732E2E2E2E2E54
:100870002E2E2E2E2E2E2E2E2E2E2E2E2E2E002DC7
:100880002D2D2D2D2D4669726D7761726520496E73
:10089000697469616C697A6174696F6E20537461FF
:1008A0007274696E672D2D2D2D2D2D2D2D002D2D62
:1008B0002D2D2D2D4265666F7265204C6F61646928
:1008C0006E672046726565204D656D6F72793A20BE
:1008D00025642D2D2D2D2D2D2D2D2D2D00457272A4
:1008E0006F723A2043616E6E6F7420706572666F2E
:1008F000726D207468697320616374696F6E20770C
:1009000068696C6520612074657374206973207256
:10091000756E6E696E67004572726F723A2054652B
:100920006D70657261747572652073657420706F87
:10093000696E74206D757374206265203C3D2025BE
:1009400064004572726F723A2043616E6E6F74205C
:100950006368616E67652063757272656E74206F7F
:10096000722074656D706572617475726520776848
:10097000696C6520612074657374206973207275D9
:100980006E6E696E67004572726F723A204E6F74B8
:1009900020696E2048656174696E67204D6F6465DB
:1009A0002C20537769746368206D6F6465732074BD
:1009B0006F205475726E204F6E2F4F66662048650B
:1009C0006174657273004572726F723A204E6F7473
:1009D00020696E2054756E696E67204D6F64652CBA
:1009E00020537769746368206D6F64657320746F3A
:1009F0002073746172742074756E696E670046614D
:100A0000696C656420746F2064697363617264202B
:100A100074756E696E672C2074756E696E672069D7
:100A200073206E6F7420696E20636F6D706C6574D7
:100A300065207374617465004661696C6564207437
:100A40006F20736176652074756E696E67207265BC
:100A500073756C74732C2074756E696E672069737E
:100A6000206E6F7420696E20636F6D706C657465A5
:100A7000207374617465004661696C656420746FED
:100A80002073746172742074756E696E672C2074A3
:100A9000756E696E672069732072756E6E696E6718
:100AA000206F7220636F6D706C6574652073746164
:100AB00074652E004661696C656420746F207374E0
:100AC0006F702074756E696E672C2074756E696E18
:100AD000672069732065697468657220696E206992
:100AE000646C65206F7220636F6D706C6574652037
:100AF00073746174652E004661696C656420746F5F
:100B000020636F6E74696E75652C20746573742034
:100B10006973206E6F74207061757365640046613F
:100B2000696C656420746F2070617573652C207426
:100B300065737420697320616C72656164792070DB
:100B40006175736564004661696C656420746F202B
:100B500073746172742C2063757272656E74206F89
:100B600072207361766553746174652077617320B8
:100B70006E6F7420736574004661696C65642074DF
:100B80006F2073746172742C2074657374206973A0
:100B900020616C72656164792072756E6E696E6732
:100BA000004661696C656420746F207472616E73B5
:100BB0006974696F6E20746F2069646C6520667259
:100BC0006F6D2072756E6E696E67207374617465E7
:100BD0002C2074657374206973206265696E6720C8
:100BE000686172642073746F707065642E200A20CF
:100BF0007265737461727420636F6E74726F6C6C63
:100C00006572206265666F726520737461727469C3
:100C10006E6720616E6F746865722074657374000E
:100C2000507265666978206E6F7420666F756E64A9
:100C300020696E206D657373616765207061636BF9
:100C4000657400496E76616C6964206D65737361CB
:100C50006765207061636B65742070726566697882
:100C60002072656369657665643A20257300466184
:100C7000696C656420746F2073657269616C697A50
:100C80006520646174613A2025732E20506C656183
:100C9000736520636F6E746163742061646D696E47
:100CA0006973747261746F72004661696C65642067
:100CB000746F20646573657269616C697A6520641C
:100CC0006174613A2025732E20506C656173652034
:100CD000636F6E746163742061646D696E697374AF
:100CE0007261746F7200496E76616C696420636F23
:100CF0006D6D616E6420726563696576656421203F
:100D0000506C6561736520636F6E746163742061FC
:100D1000646D696E6973747261746F7200466169A3
:100D20006C656420746F2064656C65746520736104
:100D30007665642073746174652120506C656173FD
:100D40006520636F6E746163742061646D696E69A0
:100D500073747261746F72004661696C65642074AB
:100D60006F206C6F616420736176656420737461B9
:100D700074652C2073746174696F6E2077696C6C74
:100D800020636F6E74696E756520746F206E6F726C
:100D90006D616C206F7065726174696F6E2E20508A
:100DA0006C6561736520636F6E7461637420616448
:100DB0006D696E6973747261746F72004661696CFB
:100DC000656420746F207361766520686561746561
:100DD000722074756E696E6720726573756C7473BA
:100DE000212120506C6561736520636F6E746163AF
:100DF000742061646D696E6973747261746F7200DE
:100E000053442063617264206661696C6564207478
:100E10006F20696E697469616C697A65212120446B
:100E2000656661756C74732077696C6C20626520EF
:100E30006C6F616465642E200A20496620796F75A5
:100E400020636F6E74696E7565206E6F20636861D4
:100E50006E67657320746F2074686520636F6E66BB
:100E6000696775726174696F6E2077696C6C206256
:100E7000652073617665642E20506C656173652012
:100E8000636865636B20636F6E6E656374696F6E14
:100E90007320616E6420636F6E746163742061649B
:100EA0006D696E6973747261746F72004661696C0A
:100EB000656420746F207361766520636F6E666968
:100EC0006775726174696F6E2066696C653A20257A
:100ED000732E204368616E6765732077696C6C20A0
:100EE0006265206C6F7374206F6E20726573657419
:100EF0002E20506C6561736520636F6E746163743E
:100F00002061646D696E6973747261746F720046FA
:100F100061696C656420746F207361766520636F0E
:100F20006E66696775726174696F6E2066696C655B
:100F3000732E2020506C6561736520636F6E746141
:100F400063742061646D696E6973747261746F7229
:100F5000004661696C656420746F206C6F61642069
:100F6000636F6E66696775726174696F6E2066691A
:100F70006C653A2025732E2044656661756C747328
:100F80002077696C6C206265206C6F616465642EEB
:100F9000200A20506C6561736520636F6E74616315
:100FA000742061646D696E697374617261746F72CB
:100FB000004661696C656420746F206C6F61642009
:100FC000636F6E66696775726174696F6E206669BA
:100FD0006C65732E20506C6561736520636F6E7451
:100FE0006163742061646D696E6973747261746F9A
:100FF00072004D657373616765004D65737361675A
:1010000065547970650053746174696F6E4D6573D2
:10101000736167650053746174696F6E4D657373B6
:1010200061676500AE087F0850082108F207C30712
:101030009407650736070707D806A90682064706FC
:101040001206E305CE05BE05A90595056C055805F4
:101050001E050F05ED04CD04930474044804320406
:10106000B10F510F0F0FAC0E000EBC0D580D1D0D22
:10107000E60CA90C6E0C430C200CA10B780B460B54
:101080001E0BF70AB40A770A380AFE09C609860950
:1010900042091709DD086657656967687400506979
:1010A0006E0043436F6566660042436F6566660087
:1010B00041436F6566660057696E646F7753697A5E
:1010C000654D73004B64004B69004B7000486561CF
:1010D00074657249640050696E0054656D704465B2
:1010E00076696174696F6E00506964436F6E6669FA
:1010F00067004E7463436F6E666967006657656983
:101100006768740050696E0043436F65666600420D
:10111000436F6566660041436F6566660057696E9A
:10112000646F7753697A654D73004B64004B6900B7
:101130004B700048656174657249640050696E00C7
:1011400054656D70446576696174696F6E005069AD
:1011500064436F6E666967004E7463436F6E6669C1
:101160006700506964436F6E666967004E7463433D
:101170006F6E6669670054656D7065726174757233
:1011800065536574506F696E740052656164496E91
:1011900074657276616C00486561746572436F6E48
:1011A00066696775726174696F6E73004865617412
:1011B0006572436F6E66696775726174696F6E738D
:1011C0000054656D70657261747572655365745015
:1011D0006F696E740052656164496E746572766100
:1011E0006C00486561746572436F6E6669677572FD
:1011F0006174696F6E7300486561746572436F6EE8
:1012000066696775726174696F6E730054656D709D
:1012100065726174757265536574506F696E7400A0
:1012200052656164496E74657276616C00486561EF
:10123000746572436F6E66696775726174696F6E0B
:10124000730054656D706572617475726553657471
:10125000506F696E740052656164496E7465727690
:10126000616C00486561746572436F6E666967758D
:10127000726174696F6E7300537769746368456E49
:1012800061626C65640053657443757272656E7457
:101290000050696E36306D410050696E3132306DEC
:1012A000410043757272656E7450696E00537769C0
:1012B000746368456E61626C656400536574437560
:1012C0007272656E740050696E36306D41005069FF
:1012D0006E3132306D410043757272656E745069C3
:1012E0006E00665765696768740050696E006657DE
:1012F00065696768740050696E0043757272656E47
:101300007453656E736F72436F6E66696700566FD4
:101310006C7461676553656E736F72436F6E666957
:101320006700665765696768740050696E006657A4
:1013300065696768740050696E0043757272656E06
:101340007453656E736F72436F6E66696700566F94
:101350006C7461676553656E736F72436F6E666917
:10136000670043757272656E7453656E736F724376
:101370006F6E66696700566F6C7461676553656E62
:10138000736F72436F6E6669670050726F62655467
:1013900065737454696D650050726F62655465734E
:1013A0007443757272656E740043757272656E7403
:1013B00050657263656E740052656164496E746550
:1013C0007276616C0050726F6265436F6E6669671A
:1013D00075726174696F6E730043757272656E74B5
:1013E00053656C656374436F6E6669670050726F16
:1013F0006265436F6E66696775726174696F6E735B
:101400000043757272656E7453656C656374436FE7
:101410006E6669670050726F6265546573745469D3
:101420006D650052656164496E74657276616C0029
:1014300050726F62655465737443757272656E7431
:101440000043757272656E7450657263656E7400E8
:1014500050726F6265436F6E666967757261746919
:101460006F6E730043757272656E7453656C65635D
:1014700074436F6E6669670050726F6265436F6E8A
:1014800066696775726174696F6E73004375727215
:10149000656E7453656C656374436F6E666967004F
:1014A00050726F62655465737454696D6500507253
:1014B0006F62655465737443757272656E74004330
:1014C000757272656E7450657263656E74005265F4
:1014D0006164496E74657276616C0050726F62650A
:1014E000436F6E66696775726174696F6E730043EE
:1014F000757272656E7453656C656374436F6E6666
:1015000069670050726F62655465737454696D65E4
:101510000050726F62655465737443757272656EC4
:10152000740043757272656E7450657263656E7493
:101530000052656164496E74657276616C00507228
:101540006F6265436F6E66696775726174696F6E0D
:10155000730043757272656E7453656C6563744392
:101560006F6E6669670056657273696F6E496E7457
:10157000657276616C004C6F67496E746572766156
:101580006C00557064617465496E74657276616C47
:1015900000436F6D496E74657276616C0054696DBD
:1015A000654F666650657263656E740054696D655B
:1015B0003135306D415365630054696D65313230AA
:1015C0006D415365630054696D6536306D415365F7
:1015D00063004275726E54696D6572436F6E666921
:1015E000670056657273696F6E496E7465727661D5
:1015F0006C004C6F67496E74657276616C00557053
:1016000064617465496E74657276616C00436F6DD8
:10161000496E74657276616C0054696D654F6666DB
:1016200050657263656E740054696D653135306D57
:10163000415365630054696D653132306D415365C6
:10164000630054696D6536306D41536563004275C2
:10165000726E54696D6572436F6E66696700566598
:101660007273696F6E496E74657276616C004C6F4F
:1016700067496E74657276616C005570646174655B
:10168000496E74657276616C00436F6D496E746566
:101690007276616C0054696D654F66665065726361
:1016A000656E740054696D653135306D4153656305
:1016B0000054696D653132306D4153656300546982
:1016C0006D6536306D41536563004275726E5469C5
:1016D0006D6572436F6E666967004275726E54691C
:1016E0006D6572436F6E6669670056657273696FE8
:1016F0006E496E74657276616C004C6F67496E74EA
:10170000657276616C00557064617465496E7465CC
:101710007276616C00436F6D496E74657276616CB0
:101720000054696D654F666650657263656E74003E
:1017300054696D653135306D415365630054696D91
:10174000653132306D415365630054696D653630E3
:101750006D41536563004275726E54696D657243E5
:101760006F6E666967004275726E54696D6572438B
:101770006F6E666967005061636B657400506163EA
:101780006B6574005061636B6574005061636B65D9
:1017900074005061636B6574005061636B65740025
:1017A0005061636B6574005061636B6574005061D8
:1017B000636B6574005061636B657400507265669D
:1017C0006978005061636B65740050726566697872
:1017D000005061636B6574005072656669780050F3
:1017E000726F626552756E74696D65730050726FC9
:1017F000626552756E74696D6573004475726174CB
:10180000696F6E5365637300456C617073656453F3
:10181000656373005061757365640052756E6E691F
:101820006E670050726F626552756E74696D657394
:10183000004475726174696F6E5365637300456C23
:10184000617073656453656373005061757365649B
:101850000052756E6E696E67005061757365640045
:1018600052756E6E696E6700456C61707365645386
:1018700065636F6E64730052756E74696D65536550
:10188000636F6E64730054656D7065726174757218
:1018900065536574506F696E740043757272656E3E
:1018A00074536574506F696E740050726F62655244
:1018B000756E54696D654F6B61790048656174653B
:1018C000725374617465730050726F626552756E05
:1018D00074696D65730054656D70657261747572BD
:1018E00065730043757272656E747300566F6C7425
:1018F00061676573005061757365640052756E6E43
:10190000696E6700456C61707365645365636F6EE3
:1019100064730052756E74696D655365636F6E64B0
:10192000730054656D70657261747572655365748A
:10193000506F696E740043757272656E745365748E
:10194000506F696E740050726F626552756E5469A3
:101950006D654F6B617900486561746572537461A0
:101960007465730050726F626552756E74696D654F
:10197000730054656D7065726174757265730043B0
:10198000757272656E747300566F6C7461676573FF
:10199000005061757365640052756E6E696E670004
:1019A000456C61707365645365636F6E6473005258
:1019B000756E74696D655365636F6E64730054650D
:1019C0006D7065726174757265536574506F696E80
:1019D000740043757272656E74536574506F696EEE
:1019E000740050726F626552756E54696D654F6B0D
:1019F0006179004865617465725374617465730040
:101A000050726F626552756E74696D6573005465CE
:101A10006D7065726174757265730043757272657D
:101A20006E747300566F6C74616765730050726FEB
:101A3000626552756E54696D654F6B6179004865DA
:101A4000617465725374617465730050726F62657E
:101A500052756E74696D65730054656D7065726161
:101A600074757265730043757272656E7473005697
:101A70006F6C7461676573005061757365640052C3
:101A8000756E6E696E6700456C6170736564536551
:101A9000636F6E64730052756E74696D6553656330
:101AA0006F6E64730054656D7065726174757265F4
:101AB000536574506F696E740043757272656E740D
:101AC000536574506F696E740050726F6265527521
:101AD0006E54696D654F6B6179004865617465721C
:101AE0005374617465730050726F626552756E74E1
:101AF000696D65730054656D7065726174757265AA
:101B0000730043757272656E747300566F6C746106
:101B10006765730050726F626552756E54696D65CA
:101B20004F6B6179004865617465725374617465C7
:101B3000730050726F626552756E74696D657300E3
:101B400054656D706572617475726573004375726A
:101B500072656E747300566F6C74616765730043D1
:101B6000757272656E7454696D6500437572726545
:101B70006E7454696D650053657454656D7065725B
:101B800061747572650053657443757272656E7425
:101B90000043757272656E7454696D6500536574A7
:101BA00054656D7065726174757265005365744338
:101BB000757272656E740043757272656E745469E5
:101BC0006D650043757272656E7454696D6500537E
:101BD000657454656D7065726174757265005365E6
:101BE0007443757272656E740043757272656E74BB
:101BF00054696D650053657454656D7065726174E8
:101C00007572650053657443757272656E74004534
:101C100072723A2043616E6E6F74207475726E201A
:101C20006F6666207768696C6520696E2074756ED2
:101C3000696E67206D6F6465004D657373616765DC
:101C4000005061636B65740050726566697800547A
:101C500065737420436F6D706C65746564004572C4
:101C6000723A2043616E6E6F7420746F67676C65A3
:101C70002068656174657273207768696C65206996
:101C80006E2074756E696E67206D6F646500416CBF
:101C9000726561647920696E2048656174696E6758
:101CA000204D6F6465004572723A204175746F2053
:101CB00054756E6520697320616C7265616479206A
:101CC00072756E6E696E67004572723A2043616E7E
:101CD0006E6F742073746172742074756E696E67B0
:101CE000207768696C6520696E20636F6D706C6524
:101CF0007465207374617465004572723A2048659A
:101D0000617465727320617265206E6F7420696EF4
:101D10002074756E696E67206D6F64650045727220
:101D20003A2054756E696E6720697320636F6D7019
:101D30006C657465642E202053617665206F722077
:101D40006469736361726420746F2073746F7000D0
:101D50004572723A2054756E696E67206973206E01
:101D60006F742072756E6E696E67004572723A20EC
:101D70004865617465727320617265206E6F7420AE
:101D8000696E2074756E696E67206D6F64650045BD
:101D900072723A20496E2068656174696E67206DC1
:101DA0006F64652C206E6F74696E6720746F206499
:101DB000697363617264004572723A2054756E698A
:101DC0006E67206973207374696C6C2072756E6E17
:101DD000696E67004572723A2054756E696E6720AD
:101DE0006973206E6F742072756E6E696E67004540
:101DF00072723A20496E2068656174696E67206D61
:101E00006F64652C206E6F74696E6720746F207329
:101E1000617665004572723A2054756E696E67206E
:101E20006973207374696C6C2072756E6E696E676D
:101E3000004572723A2054756E696E67206973208E
:101E40006E6F742072756E6E696E67006B64006BE6
:101E500069006B70004865617465724E756D6265EE
:101E6000720048656174657254756E6500486561FD
:101E700074657254756E6500CDCCCC3D0AD7233C99
:101E800017B7D13877CC2B329595E6241FB14F0A7E
:101E9000000020410000C84200401C4620BCBE4C4F
:101EA000CA1B0E5AAEC59D746B64006B69006B70E3
:101EB000004865617465724E756D626572006B6491
:101EC000006B69006B70004865617465724E756DDA
:101ED000626572004175746F54756E6552657375F5
:101EE0006C7473006B64006B69006B700048656113
:101EF0007465724E756D626572004175746F5475CC
:101F00006E65526573756C747300497354756E69B0
:101F10006E6700456C61707365645365636F6E64D2
:101F2000730054656D706572617475726553657484
:101F3000506F696E740048656174657253746174A2
:101F400065730054656D70657261747572657300B8
:101F5000497354756E696E6700456C617073656492
:101F60005365636F6E64730054656D706572617460
:101F7000757265536574506F696E7400486561745D
:101F800065725374617465730054656D7065726138
:101F9000747572657300497354756E696E67004598
:101FA0006C61707365645365636F6E647300546530
:101FB0006D7065726174757265536574506F696E8A
:101FC000740048656174657253746174657300547C
:101FD000656D7065726174757265730048656174D2
:101FE00065725374617465730054656D70657261D8
:101FF000747572657300497354756E696E67004538
:102000006C61707365645365636F6E6473005465CF
:102010006D7065726174757265536574506F696E29
:10202000740048656174657253746174657300541B
:10203000656D706572617475726573004865617471
:1020400065725374617465730054656D7065726177
:1020500074757265730054434F4D005554005543D9
:102060000041434B004854554E454400484E4F54A0
:1020700049465900544C4F41440054434F4D500081
:1020800054535441540056455252455100564552FE
:10209000524543004944524551004944524543008A
:1020A000434F4D0044004D005354004353004350F0
:1020B0000043480054434F4D0055540055430041E0
:1020C000434B004854554E454400484E4F544946F2
:1020D0005900544C4F41440054434F4D5000545309
:1020E00054415400564552524551005645525245AE
:1020F0004300494452455100494452454300434F2F
:102100004D0044004D0053540043530043500043DE
:1021100048002F73746174652E747874002F7343B4
:102120006F6E6669672E747874002F70436F6E66E9
:102130006967732E747874002F68436F6E666967E1
:10214000732E7478740054434F4D0055540055431A
:102150000041434B004854554E454400484E4F54AF
:1021600049465900544C4F41440054434F4D500090
:10217000545354415400564552524551005645520D
:102180005245430049445245510049445245430099
:10219000434F4D0044004D005354004353004350FF
:1021A000004348004D657373616765005374617443
:1021B0007573005061636B65740050726566697871
:1021C00000546573742053746172746564004D65C6
:1021D0007373616765005374617475730050616354
:1021E0006B6574005072656669780054657374207D
:1021F00053746172746564007C3C3E5E2B3D3F2FDE
:102200005B5D3B2C2A225C004572723A2043616E72
:102210006E6F74207475726E206F6E207768696CB3
:102220006520696E2074756E696E67206D6F6465D8
:102230000046726565205352414D3A200046726552
:1022400065205352414D3A20000000210024002710
:10225000002A002D003000330001010000040107B6
:10226000010A0100002200250028002B002E003169
:1022700000340002010000050108010B01050505FD
:1022800005070508080808020202020A0A080804ED
:10229000040404010101010101010103030303031B
:1022A000030303040707070C0C0C0C0C0C0C0C02AA
:1022B00002020206060606060606060B0B0B0B0BB1
:1022C0000B0B0B01021020200808102040102040AA
:1022D00080020102010804020101020408102040EA
:1022E0008080402010080402018004020180402008
:1022F0001008040201080402010102040810204031
:1023000080010204081020408000000A0B02090C22
:102310000D0E08070304010000000000000000008B
:1023200000000000000000000000000000000000AD
:10233000000000000012111000000000000000006A
:10234000000000000000000000000000000000503D
:1023500061636B65740050726566697800506163F3
:102360006B657400507265666978005061636B65D7
:10237000740050726566697800B120AE20AB20A869
:1023800020A620A420A0209A2094208D20862080A2
:10239000207A2074206C20652061205E205B20560E
:1023A000205061636B657400507265666978000F38
:1023B000210C210921062104210221FE20F820F20E
:1023C00020EB20E420DE20D820D220CA20C320BF6A
:1023D00020BC20B920B42038212A211D21122150EF
:1023E00061636B65740050726566697800A1219E17
:1023F000219B2198219621942190218A2184217D5D
:1024000021762170216A2164215C21552151214EC0
:10241000214B214621007780F37F11241FBECFEF8F
:10242000D1E2DEBFCDBF00E00CBF14E0A0E0B2E01F
:10243000EEEFF3E301E00BBF02C007900D92AA3E5E
:10244000B107D9F72DE0AAEEB4E001C01D92A83281
:10245000B207E1F712E1CCE0D2E100E006C021973B
:102460000109802FFE010E94A995CB30D10780E0A1
:102470000807A9F70E9452850C94ED990C9400006E
:10248000000000000000000000000000000000004C
:10249000000000000000000000000000000000003C
:1024A000000000000000000000000000000000002C
:1024B000000000000000000000000000000000001C
:1024C000000000000000000000000000000000000C
:1024D000000000000000CF93FC01892B49F194819A
:1024E0009F779830E1F040F4992311F19630A9F0EC
:1024F000C1E08C2FCF9108959A3089F09C30C1F7BC
:10250000C1E020E030E0A901608171818281938186
:102510000E9459918111EDCF0BC0C081EACFC1E07B
:1025200080819181A281B381892B8A2B8B2B09F722
:10253000C0E0DFCF089508950895FC01C3962FEF02
:102540003FEF358324831682178210861186128608
:1025500013861486158616861786108A118A128AA3
:102560007196E817F90769F708954F925F926F9295
:102570007F928F929F92AF92BF92CF92DF92EF9213
:10258000FF92CF93DF9300D000D0CDB7DEB79E830C
:102590008D837B01FB01458056806780708420E03D
:1025A00030E0A901C301B2010E94599187FD7BC0AF
:1025B000F70181849284A384B48420E030E0A901EF
:1025C000C501B4010E94599187FD6DC0F701C58412
:1025D000D684E784F08820E030E0A901C701B60185
:1025E0000E94599187FD5FC020E030E0A901ED8194
:1025F000FE8160AD71AD82AD93AD0E9459918111A4
:1026000008C0ED81FE81E45AFF4F108211821282D0
:102610001382ED81FE81E05AFF4F20E034E244E76F
:1026200059E460817181828193810E9463936983FF
:102630007A838B839C83ED81FE81E85BFF4FC082B0
:10264000D182E282F382ED81FE81E05CFF4F408225
:10265000518262827382ED81FE81EC5BFF4F80824A
:102660009182A282B382ED81FE8144AA55AA66AA14
:1026700077AA9B01AC01C501B4010E94BF91ED8115
:10268000FE8160AF71AF82AF93AF29813A814B81F8
:102690005C81C701B6010E946393ED81FE8164AF46
:1026A00075AF86AF97AF26960FB6F894DEBF0FBE14
:1026B000CDBFDF91CF91FF90EF90DF90CF90BF9093
:1026C000AF909F908F907F906F905F904F90089504
:1026D000FC01DB0189E694E09183808312968D9161
:1026E0009C9113979383828314968C91149784837F
:1026F00015964D915D916D917C9118974583568308
:102700006783708719964D915D916D917C911C97AF
:1027100041875287638774871D968D919D910D9097
:10272000BC91A02D85879687A787B08B0895CF93FE
:10273000DF93CDB7DEB761970FB6F894DEBF0FBE5B
:10274000CDBFCE0101960E94681361960FB6F89432
:10275000DEBF0FBECDBFDF91CF910895EF92FF9204
:102760000F931F93CF93DF93CDB7DEB7E3970FB6E9
:10277000F894DEBF0FBECDBFDC0112960D911C9107
:10278000F801E950FF4F1082319681E0808329E6FD
:1027900034E03CA32BA37697408151816281738101
:1027A00048AB59AB6AAB7BAB3497408151816281B6
:1027B00073814CA75DA76EA77FA734974081518195
:1027C0006281738148A759A76AA77BA78FA3B09698
:1027D000808191819EA38DA3BE016D5D7F4FCE014F
:1027E00042960E946813F801EA5EFE4F0081118153
:1027F000D801ED91FC91E480F580BE016E5E7F4FC3
:10280000CE0101960E946813BE016F5F7F4FC80121
:10281000F7011995E3960FB6F894DEBF0FBECDBF52
:10282000DF91CF911F910F91FF90EF900895DC0100
:102830001C968D919C91DC01ED91FC910484F585B1
:10284000E02D1994DC011C968D919C91DC01ED9199
:10285000FC910284F385E02D1994DC011C968D9186
:102860009C91DC01ED91FC910084F185E02D19949F
:10287000CF93DF93EC0188819981DC01ED91FC918C
:102880000280F381E02D19952A813B81820F931FED
:102890009B838A83DF91CF9108958F929F92AF920D
:1028A000BF92CF92DF92EF92FF920F931F93CF933D
:1028B000DF93CDB7DEB766970FB6F894DEBF0FBED5
:1028C000CDBF6C018E01095E1F4F78018AE0882E12
:1028D000912CA12CB12CCB01BA01A50194010E942D
:1028E000C592942F852F605DF80162938F01A90135
:1028F000692F782F411551056105710561F7A70111
:102900004E1B5F0BBF01C6010E94381466960FB6BE
:10291000F894DEBF0FBECDBFDF91CF911F910F9115
:10292000FF90EF90DF90CF90BF90AF909F908F90EF
:102930000895CF93DF93EC01CB016D817E814F81B0
:1029400058856417750749F0461B570BDC01ED915C
:10295000FC910280F381E02D199589819A819887F5
:102960008F839E838D83DF91CF910895CF93DF93E3
:10297000FC01C485D585BE010F960E949914E8819B
:10298000F9810680F781E02DCE01DF91CF91199476
:102990000895089590E080E0089508950895FC0159
:1029A000613059F018F0623071F008950280F381BF
:1029B000E02DE758FD4F118A08950280F381E02D44
:1029C000E956FC4FF8CF0280F381E02DEF57FC4F22
:1029D000F2CFCF93DF93EC0188819981DC01ED91F7
:1029E000FC910190F081E02D19952A813B81820FA5
:1029F000931F9B838A83DF91CF910895CF92DF92BB
:102A0000EF92FF927C01FB01309721F084819B01C2
:102A100086FD02C030E020E0B901C701FF90EF90D1
:102A2000DF90CF9008956F3FB1F0E62FE295EF7001
:102A300044E0E49F90011124DC01ED91FC91E20F50
:102A4000F31F6F70B8E06B9FC00111246281738126
:102A5000860F971F089590E080E00895CF92DF924F
:102A6000EF92FF927C01FB01309721F084819B0162
:102A700085FD02C030E020E0B901C701FF90EF9072
:102A8000DF90CF900895FC019289915084E0989F47
:102A900090011124A089B189A20FB31F1296ED9164
:102AA000FC9113973097E9F011962C9111978C9126
:102AB0002817B8F481E0820F11968C9388E0289F44
:102AC000A0011124E40FF51F309759F014828FEF05
:102AD000858317821682BF01892F8295807F820F9E
:102AE000089560E070E08FEF0895DF92EF92FF921B
:102AF0000F931F93CF93DF938C017B01D12CD801CF
:102B000050966D917C91519752968C91D816C8F43D
:102B1000B4E0DB9EE0011124C60FD71F6A817B81E0
:102B20006115710541F0D701ED91FC910280F381AF
:102B3000E02DC70119951B821A8218821982D3943D
:102B4000DECFF801128A0617170769F0D701ED9159
:102B5000FC910280F381E02DC7011995F801118BDA
:102B6000008B84E0838BDF91CF911F910F91FF90B9
:102B7000EF90DF900895EF92FF920F931F93CF9302
:102B8000DF937C018B01EA016F3F710509F0B0F41E
:102B9000E881F9810480F581E02DAB014B5F5F4F47
:102BA000BC01CE011995009749F0FC010383DF9128
:102BB000CF911F910F91FF90EF900895E881F981D7
:102BC0000280F381E02DB701CE01199590E080E0FD
:102BD000EECFCB010C94358F0C94D18F0C94D18F08
:102BE0000C94D18F0C94D18F0C94D18F0C94D18FE5
:102BF0000C94D18F0C94D18F0C94D18F0C94D18FD5
:102C00000C94D18F0C94D18F0C94D18F0C94D18FC4
:102C10000C94D18F0C94D18F0C94D18F0C94D18FB4
:102C20000C94D18F0C94D18F0C94D18F0C94D18FA4
:102C30000C94D18F0C94D18F0C94D18F0C94D18F94
:102C40000C94D18F0C94D18F0C94D18F0C94D18F84
:102C50000C94D18FCB010C94D18FFF920F931F93C3
:102C6000CF93DF93CDB7DEB7A2970FB6F894DEBF50
:102C70000FBECDBF8C01CE0142960E946813F801B1
:102C800002811381BE016E5E7F4FCE0101960E94CC
:102C900068138B819C8197FD41C02FEF280FF801AD
:102CA00031E1239FE00DF11D112490A787A38D81B1
:102CB00081A74E815F816885798542A753A764A764
:102CC00075A74A855B856C857D8546A757A760AB50
:102CD00071AB4E855F856889798942AB53AB64AB34
:102CE00075ABF801F1A492ADF922E55BFF4F90813D
:102CF000F922882321F0CE0101960E94E17CFF2079
:102D000069F0F801E05CFE4F81E08083E15AF1094F
:102D100082E08083C80183960E94667CA2960FB6EB
:102D2000F894DEBF0FBECDBFDF91CF911F910F9101
:102D3000FF9008954F925F926F927F928F929F9231
:102D4000BF92CF92DF92EF92FF920F931F93CF9398
:102D5000DF93FC01C281D381FE01E15CFE4FB080B4
:102D60003296BB2059F080819181A281B381019676
:102D7000A11DB11D80839183A283B3838E010E5563
:102D80001F4FC080D180E280F380FE01EB5BFE4FDD
:102D900060817181072E000C880B990B0E94609155
:102DA000FE017196AE0140555F4FDE01AC55BF4F3D
:102DB0004E0123E2820E911C40805180628073801C
:102DC0002481EA012993AE014D925D926D927D922C
:102DD0003696E815F90581F7F801618B728B838BC4
:102DE000948BB18EC58AD68AE78AF08EC801DF91AE
:102DF000CF911F910F91FF90EF90DF90CF90BF90F8
:102E00009F908F907F906F905F904F900C945C7D1F
:102E10008F929F92AF92BF92CF92DF92EF92FF92EA
:102E20000F931F93CF93DF938C015B017A01DC0139
:102E30001C968D909C901D9756968D919C915797BE
:102E400054962D913C915597D0E0C0E0821793079E
:102E500081F1FC01E21BF30B5296CD91DC91CE1B6C
:102E6000DF0B4C175D0708F4EA01AE01B5010E94C3
:102E7000AB96D80156968D919C9157978C0F9D1FBC
:102E800057969C938E935697AC0EBD1EEC1AFD0A76
:102E900054962D913C915597821B930B52962D91F0
:102EA0003C918217930729F4B401C8010F960E9440
:102EB0009914E114F10491F0F801C288D388EC145C
:102EC000FD04D0F0D401ED91FC910280F381E02D5E
:102ED000A701B501C4011995C80FD91FCE01DF9113
:102EE000CF911F910F91FF90EF90DF90CF90BF9007
:102EF000AF909F908F90089586899789248935890E
:102F0000AC01421B530BC41AD50AEC14FD0408F49F
:102F10006701A601B5010E94AB96D80156968D9126
:102F20009C9157978C0D9D1D57969C938E93569709
:102F3000CC0DDD1DD3CFCF93DF93FC018485958528
:102F4000228933892115310549F4DC01ED91FC9189
:102F50000190F081E02DDF91CF911994A689B78976
:102F600044895589ED01C41BD50B2C173D0711F47D
:102F70000E9499969D012F5F3F4F378B268B6C9354
:102F80002689378944895589241B350B4289538901
:102F90002417350729F4BC01CF010F960E9499141C
:102FA00081E090E0DF91CF910895FB010190002036
:102FB000E9F73197AF01461B570B0C9438140F9368
:102FC0001F93CF938C01C0E0F8018681C81738F4B5
:102FD00065E974E0C8010E94D517CF5FF5CFCF91A6
:102FE0001F910F9108952F923F924F925F926F928F
:102FF0007F928F929F92AF92BF92CF92DF92EF9289
:10300000FF920F931F93CF93DF93CDB7DEB76C97EB
:103010000FB6F894DEBF0FBECDBF988F8F8B6A01BD
:103020007B01AB019601CB01B6010E945991882327
:10303000F9F068E974E08F89988D0E94D5176C9635
:103040000FB6F894DEBF0FBECDBFDF91CF911F91B9
:103050000F91FF90EF90DF90CF90BF90AF909F9037
:103060008F907F906F905F904F903F902F9008953A
:1030700020E030E0A901C701B6010E9459918823E0
:1030800071F0A7019601C701B6010E94F7929B015A
:10309000AC01C701B6010E945991882351F220E08A
:1030A00030E0A901C701B6010E94599187FF09C00C
:1030B0006DE28F89988D0E94E914F7FAF094F7F881
:1030C000F09420E836E948E15BE4C701B6010E94CC
:1030D0000B9487FD7FC074E1A72EB12C00E210E0B5
:1030E000312C212CF501E057F14E659175918591B8
:1030F0009491A70196010E94599118167CF0F50150
:10310000E858F14E2591359145915491C701B6018A
:103110000E94BF916B017C01200E311E1595079511
:1031200024E0A21AB1083CEFA3163FEFB306D1F694
:1031300055245A9420E030E0A901C701B6010E944D
:103140000B9418160CF04DC02CEA35EC47E257E30F
:10315000C701B6010E94599118160CF442C0A52D62
:10316000B4E0AB02C0011124912C812CFC01E85881
:10317000F14E3F019C012057314E59013FEF53164C
:1031800081F1F301E80DF91D659175918591949197
:1031900020E030E040E251E40E94BF91A701960197
:1031A0000E940B9418167CF4F501E80DF91D259189
:1031B000359145915491C701B6010E94BF916B01B1
:1031C0007C01201A310A159507955A9484E0881AD3
:1031D0009108D4CF00E210E055E0552E312C212C7F
:1031E000A9CFC701B6010E94DC934B015C012B0102
:1031F0003C0106E080E492E4AFE0B0E0898F9A8F72
:10320000AB8FBC8F102F01509AE049165104610416
:103210007104C8F0698D7A8D8B8D9C8D2AE030E029
:1032200040E050E00E94C592298F3A8F4B8F5C8F0F
:10323000C301B2012AE030E040E050E00E94C592B4
:1032400029013A01DFCFC501B4010E945E919B01C3
:10325000AC01C701B6010E94F6926B017C01698D39
:103260007A8D8B8D9C8D0E945E919B01AC01C70174
:10327000B6010E94BF912B013C010E94DC936B01BF
:103280007C010E945E919B01AC01C301B2010E94CE
:10329000F6929B01AC010E94F7920E94DC93C60E4D
:1032A000D71EE81EF91E898D9A8DAB8DBC8DC81670
:1032B000D906EA06FB06C0F09FEF891A990AA90A07
:1032C000B90A2114310429F1AAE08A169104A10453
:1032D000B104F8F0BFEF2B1A3B0AC12CD12C7601B8
:1032E000812C912C540183942AE0422E512C612C84
:1032F000712CC701B601A30192010E94C592672BF0
:10330000682B692B51F4111644F469017A011150AC
:10331000F0CFC12CD12C7601E7CFB501A4018F8964
:10332000988D0E944D14112379F14E01E1E18E0E2A
:10333000911C012F54019AE0492E512C612C712CC3
:10334000015068F0C701B601A30192010E94C59225
:10335000605DD4016E934D0169017A01F1CF812F37
:1033600090E0BC0160957095F501E81BF90B319771
:103370008EE2808344275527461B570B6A0D7B1D21
:103380008F89988D0E9438142114310409F457CE86
:1033900065E68F89988D0E94E914810137FE08C087
:1033A0006DE28F89988D0E94E9141195019511099C
:1033B000FE0177969F018AE0E82EF12CC801B70143
:1033C0000E949595805D82938B01672BB9F7A901C7
:1033D0004E1B5F0BBF018F89988D0E9438142FCE32
:1033E0001F93CF93DF93EDE9F4E01281112379F07D
:1033F000329621816213F9CFEC016CE50E94E91449
:10340000612FCE01DF91CF911F910C94E9146111CE
:10341000F9CF6EEA74E0DF91CF911F910C94D5172C
:10342000EF92FF920F931F93CF93DF938C017B0159
:1034300062E20E94E914E7016991662321F0C80164
:103440000E94F019F9CF62E2C801DF91CF911F917C
:103450000F91FF90EF900C94E914CF92DF92EF92CE
:10346000FF920F931F93CF93DF938C016B017A012F
:1034700062E20E94E914E601EC0CFD1CCE15DF05AA
:1034800029F06991C8010E94F019F8CF62E2C801E1
:10349000DF91CF911F910F91FF90EF90DF90CF9030
:1034A0000C94E914FC01892B31F084818F778430EE
:1034B00029F0853031F090E080E00895808191819D
:1034C00008958081918104960895CB01BA010C94EE
:1034D000B895CF92DF92EF92FF920F93CF93DF9345
:1034E000EC01ED8A3B8B2A8B81E08C8B098BFB01F5
:1034F000808191819C878B87002361F069017A012B
:103500000E947969C60ED71EE81EF91ECD86DE869A
:10351000EF86F88ADF91CF910F91FF90EF90DF90C7
:10352000CF900895FC01118A338B228B148ADB0122
:103530008D919C9194878387158A08950895FC0145
:10354000DB01C6964789508D618D728D4D935D93D9
:103550006D937C931397438D548D658D768D149662
:103560004D935D936D937C931797278D18962C93AD
:10357000189739961996E817F90721F708952F92A9
:103580003F924F925F926F927F928F929F92AF92F3
:10359000BF92CF92DF92EF92FF920F931F93CF9340
:1035A000DF935C012BE0A20EB11C8C011C0187E1B2
:1035B000280E311C44244A9483E0582E612C712C2F
:1035C0004801EFE58E0E911CF501C191D1915F018B
:1035D0008F8D0E943769C8A0D9A0EAA0FBA0A701DF
:1035E000960160E070E0CB010E94F6922CA13DA113
:1035F0004EA15FA10E94BF91A70196010E94F79280
:1036000068A379A38AA39BA36B877C878D879E87FA
:103610008BA90E9437692AEF30E0DC010E94B19546
:10362000A30192010E949392CCA8DDA8EEA8FFA866
:10363000B901330F880B990B0E946091A701960185
:103640000E94F69228AD39AD4AAD5BAD0E94BF91A4
:10365000A70196010E94F7926B017C01CCAADDAA1A
:10366000EEAAFFAACF86D88AE98AFA8A4B855C85BA
:103670006D857E858B89F801478B508F618F728FA6
:10368000C38ED48EE58EF68E878F20E030E048EC36
:1036900052E4F40160817181828193810E9463937D
:1036A000A70196010E94BF91C1E0A70196010E9467
:1036B000599118160CF4C0E0F801C78F075F1F4F2F
:1036C000A214B30409F080CFDF91CF911F910F9125
:1036D000FF90EF90DF90CF90BF90AF909F908F9032
:1036E0007F906F905F904F903F902F900895FC01D6
:1036F000828193810C94BF1A885A9F4F60E0FC012D
:1037000080810C948A68CF93DF93EC018E85883793
:10371000C1F0863941F08C33B1F460E08C850E94B1
:103720008A6861E005C060E08C850E948A6860E07C
:103730008D850E948A6861E08B85DF91CF910C9422
:103740008A6861E0F1CFDF91CF910895CF93C82FC0
:10375000CB016C2F45960E9413152FEF009711F0A7
:10376000FC012581BC018C2F922FCF910895CF921F
:10377000DF92EF92FF920F931F93CF93DF938C0111
:103780007B01FB01C380D480C6010E94358FEC0110
:10379000F80192838183892B11F4D12CC12CF8017B
:1037A000D482C382209739F0F70161817281A6012A
:1037B000CE010E94AB96CD2809F1F701C780D084D5
:1037C00065817681A601461B570BCE010E94AB9600
:1037D000F801D683C583F70185819681C81AD90A75
:1037E000CC0DDD1DF801D087C783DF91CF911F91EC
:1037F0000F91FF90EF90DF90CF900895F80116821F
:10380000158210861782F1CFCF93DF93EC018BE600
:1038100093E0998388836C857D85CE010F960E9405
:10382000991488899989DF91CF910C94D18FCF9386
:10383000DF93FB0122813381DC0113963C932E93AD
:103840001297448155816681778114964D935D93DB
:103850006D937C9317974085518562857385189683
:103860004D935D936D937C931B971C96EF012C9663
:103870009C01275E3F4F49914D93A217B307D9F79B
:10388000218D328DFC01328F218FDF91CF910895F0
:10389000DC018D919C91DC01ED91FC910480F5811E
:1038A000E02D19940F931F93CF93DF93FC0121898F
:1038B000222339F1EC010E9479690D851E852F853F
:1038C00038896017710782079307D8F08E01055F6A
:1038D0001F4F8C89882399F00E9479692A893B8936
:1038E000620F731F811D911D6D877E878F87988B57
:1038F000C801DF91CF911F910F910C94481C198A38
:10390000F7CFDF91CF911F910F910895CF93DF9360
:10391000EC0181E0898B8C89882339F08D8988239B
:1039200021F0CE010B960E94481C0E9479692A89D9
:103930003B89620F731F811D911D6D877E878F8765
:10394000988BDF91CF9108954F925F926F927F9203
:103950008F929F92AF92BF92CF92DF92EF92FF929F
:103960000F931F93CF93DF9300D000D0CDB7DEB776
:1039700026E0E0E1F2E0DE01119601900D922A9539
:10398000E1F7DC0112960D911C917801B3EFEB1A6F
:10399000BDEFFB0AF701848D882309F4A8C0858D4B
:1039A0008111A5C00E947969D701DA968D909D900A
:1039B000AD90BC90DD97681979098A099B09683E2A
:1039C00073408105910508F492C0F801E55DFD4F53
:1039D00080809180A280B3802FEF821A920AA20A7F
:1039E000B20A80829182A282B382CE0101966C01DA
:1039F000A801415D5D4F21E030E0B801675D7D4F7A
:103A0000D6018D916D01FA014190519061907190B4
:103A1000AF01882309F44CC0DF011497FFEF4F1A60
:103A20005F0A6F0A7F0A4D925D926D927C921397A6
:103A30002F5F3F4F2730310519F70E947969D70171
:103A4000DA966D937D938D939C93DD97F801E75DF6
:103A5000FD4F428153816481758182A193A1A4A10C
:103A6000B5A121E0481759076A077B0708F020E055
:103A70002083481759076A077B07C8F1C7014A9690
:103A800026960FB6F894DEBF0FBECDBFDF91CF9163
:103A90001F910F91FF90EF90DF90CF90BF90AF906C
:103AA0009F908F907F906F905F904F900C94481CE8
:103AB000FB0182A193A1A4A1B5A188199909AA0922
:103AC000BB09840D951DA61DB71DF70146885788B3
:103AD000608C718C481659066A067B0608F4A8CFDC
:103AE000D901A85EBD4FA00FB11F1C92A1CF269691
:103AF0000FB6F894DEBF0FBECDBFDF91CF911F91FF
:103B00000F91FF90EF90DF90CF90BF90AF909F907C
:103B10008F907F906F905F904F9008956F927F92FB
:103B20008F929F92AF92BF92CF92DF92EF92FF92CD
:103B30000F931F93CF93DF93EC013B01C880D98093
:103B40000C811D818A819B818C199D099595879592
:103B50000817190709F040C0B80190E080E00E9402
:103B60005E9120E030E040EE5FE30E94BF910E9452
:103B7000DC934B01811480E49806C0F4C401880FE3
:103B8000991F0E94358F7C01C401F701019797FFAF
:103B900010C0D601F70190E080E00817190761F026
:103BA0002D913D91219331930196F7CF8FEF9FEFA8
:103BB000E8CF11921192EACF000F111F0E0D1F1DB9
:103BC000C114D10419F0C6010E94D18F9D828C824C
:103BD000F982E8821B830A83F30180819181EA8163
:103BE000FB8181939193FB83EA83DF91CF911F91B6
:103BF0000F91FF90EF90DF90CF90BF90AF909F908C
:103C00008F907F906F900895CF93DF931F921F92B4
:103C1000CDB7DEB72091240D3091250DCE01019650
:103C20002115310559F488529D409A8389838981F1
:103C30009A810F900F90DF91CF910895821B930B83
:103C4000F4CFCF93DF9300D000D0CDB7DEB7FC0127
:103C5000DB014D915D916D917C9113974083518370
:103C60006283738314968C911497848315968C9138
:103C7000858386E0DE01119601900D928A95E1F729
:103C800029813A814B815C816D817E8180E090E069
:103C900026960FB6F894DEBF0FBECDBFDF91CF9151
:103CA0000895CF92DF92EF92FF920F931F93CF93DD
:103CB000DF93CDB7DEB768970FB6F894DEBF0FBEBF
:103CC000CDBF6C012BE0C20ED11C8B017C01A1E1A8
:103CD000EA0EF11CD601ED91FD916D01E453FF4F09
:103CE00086E0DE011D9601900D928A95E1F786E04F
:103CF000FE013D96DE01119601900D928A95E1F745
:103D000086E0FE013196DE01179601900D928A95AC
:103D1000E1F786E0FE013796DE011D9601900D92D7
:103D20008A95E1F7BE01635F7F4FC8010E94211EA3
:103D30002B8B3C8B4D8B5E8B6F8B788F0A5F1F4F6D
:103D4000CE14DF0439F668960FB6F894DEBF0FBEC6
:103D5000CDBFDF91CF911F910F91FF90EF90DF903A
:103D6000CF900895CF93DF93EC018A819B81BC01B2
:103D700069557D4F0B960E949F1A8A819B81BC01D9
:103D800063527D4F85569F4FDF91CF910C94511E0A
:103D90002F923F924F925F926F927F928F929F925B
:103DA000AF92BF92CF92DF92EF92FF920F931F9349
:103DB000CF93DF93CDB7DEB762970FB6F894DEBF2F
:103DC0000FBECDBF8C01FC0186890E943769BC0102
:103DD000990F880B990B0E9460919B01AC0160E0E8
:103DE00070EC8FE794E40E94639320E030E040E8B9
:103DF0005FE30E94F6929B01AC0160E070E08AE70D
:103E000094E40E9463930E9418944B015C0120E0AB
:103E100030E040E450E40E9460942B013C01F80142
:103E2000C38CD48CE58CF68C23A134A145A156A17A
:103E3000C501B4010E94BF91F801278D30A141A1B5
:103E400052A10E94F7924B015C01F80127A130A515
:103E500041A552A5C301B2010E94BF919B01AC01D3
:103E6000C501B4010E94F7929B01AC0160E070E0D3
:103E700080E89FE30E94639323E333E948E853E437
:103E80000E94F692A70196010E94F692F8012789F6
:103E9000308D418D528D0E94BF91A70196010E94E5
:103EA000F7926B017C01F801C38ED48EE58EF68EFD
:103EB000EE50FF4FC082D182E282F3827C978080F5
:103EC0009180A280B380349720E030E048EC52E447
:103ED00060817181828193810E9463932B013C01F7
:103EE0001D861E861F86188A198A1A8A1801FCECFC
:103EF0002F0E311CF101C082D182E282F38220E0D8
:103F000030E040E85FE30E94F792A50194010E942F
:103F1000BF91A70196010E940B9487FD14C0A301D5
:103F2000920160E070E080E89FE30E94F692A501B4
:103F300094010E94BF91BB24B394A70196010E94F3
:103F4000599118160CF4B12CF801EF52FF4FB082C2
:103F5000D801A053BF4FB89680818C93B101CE0198
:103F60000D960E94211E2F83388749875A876B87B9
:103F70007C8786E0FE013D96DE01119601900D9250
:103F80008A95E1F729813A814B815C816D817E813F
:103F900080E090E062960FB6F894DEBF0FBECDBF12
:103FA000DF91CF911F910F91FF90EF90DF90CF9015
:103FB000BF90AF909F908F907F906F905F904F9049
:103FC0003F902F900895CF92DF92EF92FF920F9340
:103FD0001F93CF93DF93CDB7DEB72C970FB6F8942E
:103FE000DEBF0FBECDBF7C012BE0E20EF11C8C01C9
:103FF0000F5E1F4F6801F701819191917F010E942F
:10400000C81E29833A834B835C836D837E83BE0104
:104010006F5F7F4FC8010E94211E0A5F1F4FEC1483
:10402000FD0449F72C960FB6F894DEBF0FBECDBF46
:10403000DF91CF911F910F91FF90EF90DF90CF9084
:104040000895FC01828193810C94E31F2F923F928B
:104050004F925F926F927F928F929F92AF92BF9298
:10406000CF92DF92EF92FF920F931F93CF93DF9344
:10407000CDB7DEB7A6970FB6F894DEBF0FBECDBFA3
:104080008C010E9479696B8B7C8B8D8B9E8BC80118
:104090000E94C81E29833A834B835C836D837E8391
:1040A000F801E250FF4F80819181892B09F036C2DF
:1040B0000E9454696F8B788F898F9A8FF801EC5921
:1040C000FF4F80819181A281B3812F89388D498DE5
:1040D0005A8D281B390B4A0B5B0BCA01B9010E9490
:1040E0005E91F801E05AFF4F208131814281538176
:1040F0000E940B9487FDB9C1F801E558FF4F01906C
:10410000F081E02D80819181A281B3818F87988B8E
:10411000A98BBA8BF801E859FF4F20813181428188
:104120005381BC01CD010E94F6926B877C878D87FD
:104130009E87F801E358FF4F0190F081E02D2F8515
:10414000388949895A8960817181828193810E946D
:10415000F6922B013C01F801E85AFF4F4082518250
:1041600062827382749620813181428153810E94E0
:10417000F6926F83788789879A87D801D496CD90F5
:10418000DD90ED90FC90D797A7019601C301B20195
:104190000E94BF914B015C01A70196016B857C8554
:1041A0008D859E850E94BF916B017C0120E030E0EF
:1041B00040E05FE3C501B4010E94BF916B877C873B
:1041C0008D879E8720E030E040E05FE3C701B601C5
:1041D0000E94BF916B8F7C8F8D8F9E8F9B01AC0156
:1041E0006B857C858D859E850E94F6926B017C0196
:1041F000F801E45BFF4FC082D182E282F382F801D2
:1042000080AC91ACA2ACB3ACA5019401C301B201E6
:104210000E94BF916BA37CA38DA39EA3F801E05BDA
:10422000FF4F6083718382839383D801DC962D9145
:104230003D914D915C91DF976F81788589859A8555
:104240000E94BF916F8F78A389A39AA3F801EC5ABB
:10425000FF4F60837183828393832BA13CA14DA187
:104260005EA1C301B2010E94F792A50194010E94D0
:10427000BF91A70196010E94F792F62EE72ED82E45
:10428000C92EF80144A455A466A477A4A301920101
:104290000E940B9418165CF420E030E0A9016F81B5
:1042A000788589859A850E940B941816D4F0D801D8
:1042B000D0962D913D914D915C91D3976F2D7E2D90
:1042C0008D2D9C2D0E94599187FF3BC020E030E04E
:1042D000A9016F81788589859A850E94599187FF08
:1042E00030C020E030E0A901C501B4010E9459911D
:1042F000882339F153014201B7FAB094B7F8B0946A
:10430000A50194016F2D7E2D8D2D9C2D0E9459911C
:1043100087FD10C0A30192016F2D7E2D8D2D9C2D48
:104320000E940B9453014201181624F08F2C9E2CEE
:10433000AD2CBC2CF801E05BFF4F80829182A28201
:10434000B3821801BCE52B0E311CF801E05BFF4F76
:104350002081318142815381F101608171818281AB
:1043600093810E94F7922B8D3C8D4D8D5E8D0E9426
:10437000F6926B017C01D801D0968C90D097D196A3
:104380009C90D197D296AC90D297D396BC90940142
:10439000A5010E94599187FDB1C09601A701C301F3
:1043A000B2010E94599187FF02C062017301C601E8
:1043B000D701F10180839183A283B3839601A70182
:1043C0006B857C858D859E850E94F7922F8D38A107
:1043D00049A15AA10E94F7926B017C019B01AC019B
:1043E000B401C5010E940B9418160CF48AC0960102
:1043F000A701C301B2010E94599187FF02C0620167
:104400007301F801E758FF4F0190F081E02DC601DC
:10441000D70180839183A283B383F801E85AFF4FC9
:1044200080819181A281B381749680839183A283DC
:10443000B38334972F85388949895A8920833183FA
:104440004283538334978F89988DA98DBA8D808349
:104450009183A283B383EE57FF4F2B893C894D890B
:104460005E892083318342835383F801E251FF4FF9
:10447000C080D180E280F380389780819181A281D1
:10448000B3812B893C894D895E89281B390B4A0BE6
:104490005B0BCA01B9010E945E919B01AC015801FE
:1044A00089EFA80EB11CD5018C9181112DC0C701D7
:1044B000B6010E940B941816ACF581E0F5018083DB
:1044C00061E0D8019B968C91A6960FB6F894DEBF5A
:1044D0000FBECDBFDF91CF911F910F91FF90EF9055
:1044E000DF90CF90BF90AF909F908F907F906F9014
:1044F0005F904F903F902F900C948A6864017501F3
:1045000056CF640175017DCFC701B6010E94599154
:1045100087FF08C0F501108260E0D3CF60E0F801AA
:1045200083A5D2CFA6960FB6F894DEBF0FBECDBF3F
:10453000DF91CF911F910F91FF90EF90DF90CF907F
:10454000BF90AF909F908F907F906F905F904F90B3
:104550003F902F900895CF93DF93EC018B859C853E
:104560000E9426208D859E850E9426208F85988911
:104570000E9426209E012D5D3F4FFE01719681E035
:104580002E173F0721F0958189233696F9CF88238E
:1045900021F0C356DF4F82E08883DF91CF910895E9
:1045A000CF93DF93EC018B859C850E9426208D851F
:1045B0009E850E9426208F859889DF91CF910C944B
:1045C0002620CF93DF93EC0186E692E099838883DF
:1045D000FB01808191819B838A838AE090E00E9425
:1045E000358FFC011182108213821282158214828F
:1045F00017821682118610869F838E839D838C83FB
:1046000085E090E0998788871A86DF91CF91089599
:104610000F931F93CF93DF931F921F92CDB7DEB7F7
:104620008C01FB01808191819A838983BE016F5F38
:104630007F4FC8010E94E12280E892E0F801918357
:10464000808383E090E00E94358F26E732E0FC0112
:1046500031832083F8019487838715861686178611
:10466000108A118A138A128A148A158A0F900F9061
:10467000DF91CF911F910F910895CF93DF931F92F8
:104680001F92CDB7DEB71A821982BE016F5F7F4FCE
:104690000E9408230F900F90DF91CF910895CF9241
:1046A000DF92EF92FF920F931F93CF93DF93FC0162
:1046B0008AE592E09183808384E690E0A0E0B0E018
:1046C00082839383A483B58388E290E09783868373
:1046D0008DEC9CECACECBDE380879187A287B3871F
:1046E00023E0248731E0358746E959EE67E97AE32C
:1046F00046875787608B718B4DE657ED65E179E30F
:10470000428B538B648B758B40E35EE066E975E307
:10471000468B578B608F718F3CE3328F838F948FE2
:10472000A58FB68F43EC55E362E773E4478F50A340
:1047300061A372A341E75DE760E073E443A354A380
:1047400065A376A34CEE59E969EE74E447A350A73C
:1047500061A772A74AEF50E060E070E043A754A75A
:1047600065A776A787A790ABA1ABB2AB34E033AB1C
:1047700032E034AB39E5C32E3FEBD32E39E9E32EDB
:104780003AE3F32EC5AAD6AAE7AAF0AEC5E6CC2E28
:10479000C8E0DC2EC6E3EC2EC9E3FC2EC1AED2AEDF
:1047A000E3AEF4AEEF01ED961EE4C12E18E6D12E75
:1047B00015E4E12E15E3F12EC882D982EA82FB824C
:1047C00024963DE33883219688839983AA83BB830B
:1047D000249608E4C02E01E7D02E0FE3E02E04E477
:1047E000F02EC882D982EA82FB82249631EEC32E53
:1047F0003AE2D32E37E1E32E34E4F32EC882D98295
:10480000EA82FB8224961DE3C12E1AE3D12E18EA18
:10481000E12E14E4F12EC882D982EA82FB8224962A
:10482000488359836A837B83249688839983AA83E8
:10483000BB8335E03C832D83269602E519E42DE900
:104840003AE3088319832A833B8324960CE011E31F
:1048500028E239E3088319832A833B8324960DE4F5
:1048600019E324E635E3088319832A833B832496DE
:104870002EE32883219688839983AA83BB83DF0153
:10488000A359BF4F03E313EF23E333E40D931D93C9
:104890002D933C931397149601E71DE323EA32E42A
:1048A0000D931D932D933C931397149601E71DE8E8
:1048B0002AE035E40D931D932D933C931397E7580D
:1048C000FF4F4083518362837383DF91CF911F91A8
:1048D0000F91FF90EF90DF90CF900895CF93DF93EB
:1048E000FC018EE492E09183808384E690E09383E0
:1048F000828388E893E1958384838CE3868380E0D8
:1049000090E0ABEBB2E487839087A187B28786E023
:10491000838787E0848782E0858786E9868781E0D0
:10492000878786E3808B8DEC9CECACECBDE3818BC0
:10493000928BA38BB48B2FE3258B868B978BA08FC9
:10494000B18F27E3228F838F948FA58FB68F20E4BA
:10495000278F80A391A3A2A3B3A328E324A385A3B5
:1049600096A3A7A3B0A721E421A782A793A7A4A7F2
:10497000B5A729E326A787A790ABA1ABB2AB22E4EA
:1049800023AB84AB95ABA6ABB7AB2AE320AF81AF2B
:1049900092AFA3AFB4AF23E425AFEF01EE968883C7
:1049A0009983AA83BB8324962BE32883219688834B
:1049B0009983AA83BB83249624E42883E85BFF4F72
:1049C00080839183A283B383DF91CF9108958091F7
:1049D000EC049091ED04892B41F481E090E00E9479
:1049E000358F9093ED048093EC048091EC049091CA
:1049F000ED040895CF93DF93CDB7DEB7CF5FD10934
:104A00000FB6F894DEBF0FBECDBF0E94E7248091A1
:104A1000FA04882371F0EDEDF3E265917491CE0113
:104A200001960E94149163ED78E7CE0101960E94F1
:104A3000F577C150DF4F0FB6F894DEBF0FBECDBF84
:104A4000DF91CF9108951F93CF93DF93EC01162F41
:104A50000E94E7248091FA04882339F0612FCE0167
:104A6000DF91CF911F910C94227FDF91CF911F9105
:104A70000895CF93DF93FC01C281D381CE01835F80
:104A80009D4F0E94CC7A8823B1F0CE0181509D4F7A
:104A900026E9FC01228325E52383E65DF10926E270
:104AA000DC01149601900D922A95E1F763E0DF9105
:104AB000CF910C942325DF91CF910895982F8033C7
:104AC0006CF08A3324F08F3524F08B3724F481E0A6
:104AD000089581341CF081E09B350CF080E008954E
:104AE000CF92DF92EF92FF920F931F93CF93DF93BA
:104AF000EC018A85811130C00F8118850E94796987
:104B0000D80118966D937D938D939C931B97D80134
:104B1000ED91FC910284F385E02DC801199597FF72
:104B200025C00E947969F801C084D184E284F384AD
:104B30006C197D098E099F09C480D580E680F780B5
:104B40006C157D058E059F0510F38FEF9FEF97FD88
:104B500080E0898781E08A878985DF91CF911F91E5
:104B60000F91FF90EF90DF90CF9008959927EFCFAE
:104B70001F93CF93DF93EC01162F0E9470258113B2
:104B800006C01A8681E0DF91CF911F91089580E0E1
:104B9000FACF0F931F93CF93DF938C01EB01899191
:104BA000882369F0C8010E947025882379F0FE01EE
:104BB0003197908198130DC0F8011286F0CF90E0E4
:104BC00080E0DF91CF911F910F91089582E090E0F6
:104BD000F8CF83E090E0F5CFCF93DF93EC01CE01E7
:104BE0000E9470258B304CF489305CF4882359F096
:104BF00081E08E8390E080E00BC08D3011F0803238
:104C0000B9F71A86ECCF8E81811105C081E090E062
:104C1000DF91CF91089582E090E0FACFCF93DF93B8
:104C20001F921F92CDB7DEB7CE0103969A83898378
:104C30002091240D3091250D2115310559F488520C
:104C40009D409A83898389819A810F900F90DF918B
:104C5000CF910895821B930BE091260DF091270DC3
:104C6000309779F3208131812E5F3F4F820F931F60
:104C70000280F381E02DF4CFCF93DF938091EA049B
:104C80009091EB04892BB9F58BE090E00E94358F71
:104C9000EC011982188283E090E00E94358F2AE1AE
:104CA00032E0FC01318320839C838B8383E090E09E
:104CB0000E94358F24E232E0FC01318320839E8301
:104CC0008D8383E090E00E94358F2EE232E0FC017C
:104CD0003183208398878F8383E090E00E94358F13
:104CE00028E332E0FC01318320839A878987D093BF
:104CF000EB04C093EA048091EA049091EB04DF9105
:104D0000CF910895DF92EF92FF920F931F93CF936D
:104D1000DF93CDB7DEB7C350D2400FB6F894DEBFF5
:104D20000FBECDBF8E01025F1D4FF801D1908F01E4
:104D30000E943C267C0182E492E0C150DE4F9983C0
:104D40008883CF5FD140ED2DF0E0EE0FFF1FE05ADA
:104D5000FF4E65917491CE0193950E941491980134
:104D6000AE0153956FEF70E08E010F5F1F4FC801CA
:104D70000E940E97CE5FDD4F19830883C250D24048
:104D800083E0CF5FDD4F8883C150D240BE016150C8
:104D90007E4FC7010E94D47ACD5FDD4F0FB6F894E5
:104DA000DEBF0FBECDBFDF91CF911F910F91FF905E
:104DB000EF90DF900895CF93DF93EC01653690F08C
:104DC0001F9284E68F931F9283E08F9389E18F93E4
:104DD0000E9482260F900F900F900F900F90DF91FE
:104DE000CF91089570E0FC01EB5BFE4F718360830F
:104DF000072E000C880B990B0E946091EB85FC85B7
:104E0000EA52FF4F6083718382839383ED85FE8531
:104E1000EA52FF4F6083718382839383EF85F88921
:104E2000EA52FF4F6083718382839383D8CF1F93AD
:104E3000CF93DF93162FFC01C281D381CE01835F14
:104E40009D4F0E94CC7A811109C0612FCE018556F9
:104E50009F4FDF91CF911F910C94DB26DF91CF9173
:104E60001F9108951F93CF93DF93162FFC01C281EA
:104E7000D381CE01835F9D4F0E94CC7A811107C000
:104E8000CA59DF4F1883DF91CF911F9108951F9268
:104E900083E08F9388E18F930E9482260F900F907A
:104EA0000F90F1CFEF92FF920F931F93CF93DF9369
:104EB000CDB7DEB7C350D2400FB6F894DEBF0FBEF9
:104EC000CDBF0E943C268C0182E492E0C150DE4FAF
:104ED00099838883CF5FD140C35FDD4FE881CD5098
:104EE000D240F0E0EE0FFF1FEC5DFF4E6591749134
:104EF000CE0193950E9414919E01215F3D4FAE011A
:104F000053956FEF70E0CE0101967C010E940E97E1
:104F1000CE5FDD4FF982E882C250D240C25FDD4FE2
:104F20008881CE50D240CF5FDD4F8883C150D240C0
:104F3000BE0161507E4FC8010E94D47ACD5FDD4F23
:104F40000FB6F894DEBF0FBECDBFDF91CF911F919A
:104F50000F91FF90EF900895CF93DF93EC018A813A
:104F60009B810E947C1B8A819B81FC01E35AFF4F3D
:104F70002081855A9F4FFC0120831F922F9382E04E
:104F80008F938CE18F930E9452270F900F900F9078
:104F90000F90DF91CF910895CF93DF93EC0189813A
:104FA0001F928F9388811F928F931F928AE18F9314
:104FB0000E945227898188830F900F900F900F9045
:104FC0000F900F90DF91CF910895BF92CF92DF9213
:104FD000EF92FF920F931F93CF93DF93EC018C011D
:104FE00002561F4FD80111968C9111979C919817DA
:104FF00081F1813009F058C0FE01E15CFE4F8083F1
:1050000032961082118212821382CE0183960E9400
:105010009D127E01BBE0EB0EF11C6E01E1E1CE0EB4
:10502000D11CBB24B394D7018D919D917D01FC01CE
:10503000E850FF4F10823197B08293950E94861CF2
:10504000CE14DF0481F7C8010E94CC27C8010E945A
:10505000CC27D8012C91B4E02B9F900111242C0F68
:105060003D1FF901E35AFE4F40815181CA019595D8
:1050700087958C0F9D1F255A3E4FD901ED91FC91CC
:1050800040FF08C0DC012D913C91E20FF31F01901D
:10509000F081E02DDF91CF911F910F91FF90EF9064
:1050A000DF90CF90BF9019948111D0CFFE01E15CC9
:1050B000FE4F108232961082118212821382CE012C
:1050C00083960E949D128B859C85FC01E950FF4FC1
:1050D000108282509F4F21E030E0FC013183208319
:1050E0008D859E85FC01E950FF4F108282509F4FB5
:1050F000DC012D933C938F859889FC01E950FF4F8B
:10510000108282509F4FFC01318320839FCF2F92CA
:105110003F924F925F926F927F928F929F92AF9247
:10512000BF92CF92DF92EF92FF920F931F93CF9394
:10513000DF9300D01F92CDB7DEB78C016C018CE9F4
:10514000C80ED11CD60111968C9111979C9198177D
:1051500021F181115AC081E090E0F801E056FF4F43
:1051600091838083D8011B96ED91FC911C97E250AE
:10517000FF4F918380831D96ED91FC911E97E25025
:10518000FF4F918380831F96ED91FC91E250FF4F7A
:1051900091838083C6010E94CC27D6012C91B4E074
:1051A0002B9F90011124200F311FF901EF5AFE4F60
:1051B00040815181CA0195958795800F911F215B90
:1051C0003E4FD901ED91FC9140FF08C0DC012D91CB
:1051D0003C91E20FF31F0190F081E02D0F900F90B2
:1051E0000F900F90DF91CF911F910F91FF90EF9053
:1051F000DF90CF90BF90AF909F908F907F906F90F7
:105200005F904F903F902F901994813019F6F801DC
:10521000E056FF4F118210825801BBE0AB0EB11C6B
:10522000EF58F109FA83E983D501ED91FD915D0114
:10523000FC83EB83E250FF4F118210820E94796958
:10524000EB81FC81EA51FF4F6083718382839383FA
:10525000EB81FC81E758FF4F0190F081E02D208029
:105260003180428053808B809C80FCE58F0E911CA6
:10527000C101D201F40180839183A283B383EB81C6
:10528000FC81E558FF4F0190F081E02D80819181F4
:10529000A281B381EB81FC81E859FF4F8083918328
:1052A000A283B383AB81BC81D0966C90D097D1960A
:1052B0007C90D197D296EC90D297D396FC909301A4
:1052C000A701B101C2010E94599187FD10C0EB8175
:1052D000FC8164A475A4E6A4F7A49301A701B1011D
:1052E000C2010E940B94181614F031017201C3011F
:1052F000D701F40180839183A283B38389819A814A
:105300008A159B0509F090CF45CF0F931F93CF933C
:10531000DF93EC018C0106561F4FD80111968C913A
:1053200011979C918917B1F1813009F059C0FE01A4
:10533000E15CFE4F1082329610821182128213823B
:10534000CE0183960E949D128B859C85FC01E950BD
:10535000FF4F108282509F4F21E030E0FC013183EB
:1053600020838D859E85FC01E950FF4F108282507D
:105370009F4FDC012D933C938F859889FC01E95068
:10538000FF4F108282509F4FFC0131832083C80160
:105390000E94CC27D8012C91B4E02B9F90011124BE
:1053A0002C0F3D1FF901E75BFE4F40815181CA017F
:1053B000959587958C0F9D1F295B3E4FD901ED91E7
:1053C000FC9140FF08C0DC012D913C91E20FF31FDE
:1053D0000190F081E02DDF91CF911F910F911994F1
:1053E0008111D5CF81E090E0FE01E056FF4F91831F
:1053F0008083EB85FC85E250FF4F91838083ED85B0
:10540000FE85E250FF4F91838083EF85F889E2505B
:10541000FF4F91838083BBCFCF93DF93EC0182E07A
:105420008F9387E18F930E945227EA81FB8117A215
:1054300010A6EF01CB5BDF4F188219821A821B8204
:10544000DF01A75BBF4F1D921D921D921C92139707
:1054500011A612A613A614A65C970F900F901D928A
:105460001D921D921D92AC17BD07C9F7DF01AC5804
:10547000BF4F1C9211961C92CF0183579F4FDF9113
:10548000CF910C94481C0F931F93CF93DF93EC01A3
:1054900081E08A8710E000E02C813D818E819F8130
:1054A000821B930B9595879508171907A0F4C801DF
:1054B000880F991F280F391FF901808191810E945F
:1054C000432A8A85811115C0FE0112860280F3816C
:1054D000E02D3097D1F78A85882371F0E881F98132
:1054E0000190F081E02DCE01DF91CF911F910F91BE
:1054F00019940F5F1F4FD0CFDF91CF911F910F9164
:10550000089593950C94432A4F925F926F927F92E5
:105510008F929F92AF92BF92CF92DF92EF92FF92C3
:105520000F931F93CF93DF93EB01DC012C912B3270
:10553000D9F12D32D1F50196FF24F394FC0120819D
:1055400030ED320F3A3018F02E3209F042C18C01A2
:1055500060E070E0CB01F801219130ED832E820EE6
:1055600039E0381520F16A3949E97407840749E1BF
:10557000940738F5AAE0B0E09B01AC010E94B2921A
:10558000912CB12CA12C24013501409450946094AD
:105590007094461657066806790698F0680D791DCE
:1055A0008A1D9B1D8F01D7CF0196F12CC7CF2111EA
:1055B00008C0FF20E9F161307105810550E89507C9
:1055C000A0F0E12CBAE08B2E912CA12CB12C61150E
:1055D000710530E883079105B0F1A50194010E949F
:1055E000C592CA01B901E394F2CF2C8120782A60D8
:1055F0002C839B01AC0188279927DC01821B930B2C
:10560000A40BB50B88839983AA83BB838F2DDF916D
:10561000CF911F910F91FF90EF90DF90CF90BF90AF
:10562000AF909F908F907F906F905F904F90089574
:105630002C81207828602C83688379838A839B83DC
:10564000FF24F394E3CFF801D8012D918D0130EDC3
:10565000320F3A3010F4E394F6CF2E3201F58F0179
:105660000F5F1F4FF8010F5F1F4F2081A0EDDA2E53
:10567000D20EB9E0BD1598F06C3CECEC7E07ECE086
:105680008E07910578F7AAE0B0E09B01AC010E947B
:10569000B2926D0D711D811D911DEA94E3CF2081A1
:1056A0002F7D10E000E0253409F05BC021812D3210
:1056B000D1F53296CC24C394DF0110E000E02E2D0A
:1056C0000E2C000C330B5AE0B52EFD01DD9040EDA1
:1056D0004D0D4A3008F040C0B09EA001B19E500D63
:1056E00011240D2DDD0C110B00531109040F151F92
:1056F000A801420F531F473251053CF38C81CC2047
:10570000C9F040E050E060E070E8F11003C040E014
:1057100050E0BA0180788C608C83488359836A8317
:105720007B83FC2C73CF2B3219F03196C12CC4CF64
:105730003296FCCF40E050E060E87FEFF11004C00B
:1057400040E050E060E87FE780788C608C8348839D
:1057500059836A837B8374CFCC2019F0119501950E
:1057600011092081211135C00E0D111DE7FC1A957C
:105770000E945E9130E9C32E3EE1D32E1016110631
:105780003CF011950195110948E7C42E4EE1D42E45
:10579000E12C0115110591F000FF0CC024E0E29E00
:1057A000F0011124EC0DFD1D259135914591549189
:1057B0000E94BF9115950795E394EBCFF110905897
:1057C0002C8120782C602C83688379838A839B8347
:1057D00037CFF12C1BCFCF93DF9300D01F921F92B6
:1057E000CDB7DEB7009741F0FC0184818F7786301A
:1057F00091F030F4843020F560E070E0CB0111C00E
:105800008A30B9F08C3051F18830B1F76081718104
:105810008281938104C0608170E090E080E00E940A
:105820005E910F900F900F900F900F90DF91CF919E
:10583000089560817181828193810E946091F1CF8E
:10584000808191811D82BE016F5F7F4F04960E940F
:10585000842ACE0101960E94EB2BE3CF60817181F7
:1058600082819381DECFCF92DF92EF92FF92CF932E
:10587000DF9300D01F921F92CDB7DEB7FC01848169
:105880008F778630B1F040F4843041F1853099F162
:1058900060E070E0CB0111C08A30D9F08C3099F112
:1058A0008830B1F7608171818281938197FF05C053
:1058B000EFCF608170E090E080E00F900F900F904C
:1058C0000F900F90DF91CF91FF90EF90DF90CF90EE
:1058D00008956081718182819381EFCF8081918170
:1058E0001D82BE016F5F7F4F0E94842ACE01019608
:1058F0000E94332CE2CF808191811D82BE016F5FB7
:105900007F4F0496F1CFC080D180E280F38020E009
:1059100030E040E05FECC701B6010E940B9487FDC8
:10592000B7CF2FEF3FEF4FEF5EE4C701B6010E9404
:10593000599118160CF4ACCFC701B6010E94D5934B
:10594000BCCFCF92DF92EF92FF92CF93DF9300D044
:105950001F921F92CDB7DEB7FC0184818F7786300E
:10596000A1F040F4843051F18530A9F160E070E09D
:10597000CB010FC08A30C9F08C30A9F18830B1F763
:10598000608171818281938104C0608170E090E0C8
:1059900080E00F900F900F900F900F90DF91CF91BC
:1059A000FF90EF90DF90CF90089580819181A28148
:1059B000B381B7FDDBCFBC01CD01EBCF80819181FD
:1059C0001D82BE016F5F7F4F0E94842ACE01019627
:1059D0000E94A12CDECF808191811D82BE016F5F6C
:1059E0007F4F0496F1CFC080D180E280F38020E029
:1059F00030E0A901C701B6010E940B9487FDB6CF24
:105A00002FEF3FEF4FE75FE4C701B6010E945991C6
:105A100018160CF4ABCFC701B6010E94DC93B9CFC6
:105A2000009711F00C94A12C60E070E0CB01089578
:105A3000CF92DF92EF92FF92CF93DF9300D01F922D
:105A40001F92CDB7DEB7FC0184818F778630C1F01D
:105A500030F4843011F1853069F180E012C08A3071
:105A600021F08C3079F18830C1F780819181A28159
:105A7000B3818F3F9105A105B10519F010F0EDCF6D
:105A800080810F900F900F900F900F90DF91CF912A
:105A9000FF90EF90DF90CF900895808191811D82DB
:105AA000BE016F5F7F4F0E94842ACE0101960E9443
:105AB000182DE7CF808191811D82BE016F5F7F4FDE
:105AC0000496F1CFC080D180E280F38020E030E006
:105AD000A901C701B6010E940B9487FDBECF20E04B
